:020000022000DC
:103000000000012081CC0200C1CC0200C3CC020030
:10301000C5CC0200C7CC0200C9CC020000000000F1
:10302000000000000000000000000000B9D5020010
:10303000CDCC020000000000D9D50200D1CC0200A6
:10304000D3CC0200D3CC0200F1F10200D3CC0200B9
:10305000AD5A0200D3CC0200D3CC0200D3CC020084
:10306000D3CC0200D3CC0200D3CC0200D3CC0200DC
:10307000D3CC0200D3CC0200D3CC0200D3CC0200CC
:10308000D3CC0200C1D30200D3CC0200D3CC0200C7
:10309000D3CC0200D3CC020059740200D3CC02007E
:1030A000D3CC0200D3CC0200D3CC0200D3CC02009C
:1030B000D3CC0200D3CC02000000000000000000CE
:1030C000D3CC0200D3CC0200D3CC0200D3CC02007C
:1030D000D3CC0200D3CC0200D3CC0200000000000D
:1030E00000000000000000000000000000000000E0
:1030F00000000000000000000000000000000000D0
:1031000000000000000000000000000000000000BF
:1031100000000000000000000000000000000000AF
:10340000044B05481B1A062B02D9044B03B118477D
:10341000704700BFAB330020A8330020000000003D
:1034200005490648091A891001EBD171491002D0EB
:10343000034B03B118477047A8330020A83300207E
:103440000000000010B5064C237843B9FFF7D8FF01
:10345000044B13B10448AFF300800123237010BD67
:10346000A8330020000000007C61030008B5084B71
:103470001BB108490848AFF300800848036813B936
:10348000BDE80840CCE7064B002BF9D09847F7E79A
:1034900000000000AC3300207C610300A433002056
:1034A00000000000154B002B08BF134B9D46A3F5F1
:1034B000803A00218B460F461348144A121A0CF02A
:1034C000DAFE0F4B002B00D098470E4B002B00D09C
:1034D00098470020002104000D000D48002802D06C
:1034E0000C48AFF300800CF05BFE200029000BF0CD
:1034F000B1FE0CF02FFE00BF00000800000001200C
:103500000000000000000000A83300207C3F0020E5
:10351000000000000000000000880B88C01A7047FF
:1035200010B5054C054920460BF006FC2046044921
:10353000BDE810400BF000BCBC3C0020C0310300D3
:10354000CD31030030B5202489B005462246002144
:1035500068460CF090FE23460B4C0C486A46294600
:1035600003F0DEF80A4920460BF0D7FB69462046F7
:103570000BF0E2FB074800231A46194600680AF0E0
:1035800037F909B030BD00BFBC3C00203437002003
:10359000DA310300FC34002038B50D4604463349C7
:1035A00033480BF0BAFB29460A2231480BF04BFC9A
:1035B00030492F480BF0C0FB1DB12F4B18680AF0A3
:1035C0006FFC251D2D49284603F046FC38B12046E6
:1035D00002F072FE08B12A4941E02A493FE02A4937
:1035E000284603F039FC38B1204602F065FE08B1E8
:1035F000264934E0264932E02649284603F02CFCCF
:1036000038B1204602F058FE08B1234927E023498B
:1036100025E02349284603F01FFC38B1204602F07C
:103620004BFE08B11F491AE01F4918E01F49284600
:1036300003F012FC38B1204602F03EFE08B11C49EE
:103640000DE01C490BE01C49284603F005FC58B16D
:10365000204602F031FE08B1184900E0184904483C
:10366000BDE838400BF068BB38BD00BFE83103004F
:10367000BC3C0020D13A0300F0350020C8330020C4
:10368000F7310300203203004C3400204A3203009B
:10369000703203009434002097320300BD320300DF
:1036A00084350020E4320300063303000C3400208C
:1036B0002933030050330300F8350020783303002A
:1036C000A133030010B5044B044640F8103B02F050
:1036D000F9FB204610BD00BFB445030010B50D4CEA
:1036E0000D48F8B00AF03CFD0C4920460BF024FBD5
:1036F00068460AF0C9FF0A4920460BF01DFB6946DF
:1037000020460BF019FB074920460BF015FB78B05B
:1037100010BD00BFBC3C0020E0930400CB3303008D
:10372000D63303000A4203007047000000B5DFED06
:10373000137A13482DED028B60EE277A83B0FDEEED
:10374000E77AB0EE408ACDED017ABDF9041002F0BF
:1037500088FD70B10B490C480BF0DFFA18EE100A27
:103760000BF09EFF41EC100B022107480BF0A1FB70
:10377000012003B0BDEC028B5DF804FB0000C842E1
:10378000C433002095340300BC3C002000B5DFEDBD
:10379000137A13482DED028B60EE277A83B0FCEE8E
:1037A000E77AB0EE408ACDED017ABDF8041002F060
:1037B00042FD70B10B490C480BF0AFFA18EE100A3D
:1037C0000BF06EFF41EC100B022107480BF071FB70
:1037D000012003B0BDEC028B5DF804FB0000C84281
:1037E00048340020A9340300BC3C002008B5F2EEA8
:1037F000047A60EE277A2DED028BFCEEE77A0D4815
:1038000017EE901AB0EE408A02F020FD70B10A491E
:103810000A480BF082FA18EE100A0BF041FF41EC57
:10382000100B022105480BF044FB0120BDEC028B7C
:1038300008BD00BF90340020BB340300BC3C002016
:1038400010B501460446074802F0F5FC48B10649A8
:1038500006480BF062FA0A22214604480BF0F3FAFC
:10386000012010BD80350020CD340300BC3C002079
:1038700013B5FDEEC07A0A48CDED017A9DF80440FB
:10388000214602F0CDFC48B1064907480BF045FA45
:103890000A2261B204480BF0D6FA012002B010BD32
:1038A00008340020DB340300BC3C002000B5DFED11
:1038B000137A13482DED028B60EE277A83B0FDEE6C
:1038C000E77AB0EE408ACDED017ABDF9041002F03E
:1038D000C8FC70B10B490C480BF01FFA18EE100A27
:1038E0000BF0DEFE41EC100B022107480BF0E1FA71
:1038F000012003B0BDEC028B5DF804FB0000C84260
:10390000F4350020ED340300BC3C002010B5014626
:103910000446074802F08FFC48B1064906480BF000
:10392000FCF90A22214604480BF08DFA012010BD53
:103930003436002008350300BC3C002010B5DFED14
:10394000137A13482DED028B60EE277A82B0FDEEDC
:10395000E77AB0EE408ACDED017ABDF9041002F0AD
:1039600038FD044668B10B490B480BF0D6F918EE48
:10397000100A0BF095FE41EC100B022106480BF0EB
:1039800098FA204602B0BDEC028B10BD0000C84280
:10399000C43300201D350300BC3C002010B5DFED12
:1039A000137A13482DED028B60EE277A82B0FCEE7D
:1039B000E77AB0EE408ACDED017ABDF8041002F04E
:1039C000F2FC044668B10B490B480BF0A6F918EE5F
:1039D000100A0BF065FE41EC100B022106480BF0BB
:1039E00068FA204602B0BDEC028B10BD0000C84250
:1039F0004834002034350300BC3C002010B5F2EE02
:103A0000047A60EE277A2DED028BFCEEE77A0D4802
:103A100017EE901AB0EE408A02F0D0FC044668B16E
:103A200009490A480BF079F918EE100A0BF038FE34
:103A300041EC100B022105480BF03BFABDEC028B68
:103A4000204610BD9034002048350300BC3C0020C7
:103A500010B52DED028BFDEEC07A82B0CDED017A6E
:103A60009DF804100C48B0EE408A02F091FC044628
:103A700068B10A490A480BF050F918EE100A0BF029
:103A80000FFE41EC100B022105480BF012FA204604
:103A900002B0BDEC028B10BD083400205C35030081
:103AA000BC3C002010B5114C0621204602F0B0F8B5
:103AB000204602F09BF80E49204602F06DF82046A1
:103AC00002F078F82046012102F0CCF82046F422DA
:103AD000202102F0C3F82046052102F0BDF820465F
:103AE0000021BDE8104002F0EBB800BFA43900206F
:103AF000C835002010B50F4C002342F21072194651
:103B0000206809F067FF70B14FF480530022032151
:103B1000094804F0B7F9002320681A461946BDE8A1
:103B2000104009F065BE05490548BDE810400BF09E
:103B300003B900BF00350020883400208F35030012
:103B4000BC3C002010B50F4C002342F21072194605
:103B5000206809F03FFF70B100234FF48052032129
:103B6000094804F08FF9002320681A461946BDE879
:103B7000104009F03DBE05490548BDE810400BF076
:103B8000DBB800BF00350020883400208F350300EB
:103B9000BC3C002010B50F4C002342F210721946B5
:103BA000206809F017FF70B1002319464FF48052C6
:103BB000094804F067F9002320681A461946BDE851
:103BC000104009F015BE05490548BDE810400BF04E
:103BD000B3B800BF0035002088340020F53503005D
:103BE000BC3C00201FB5224C00234FF47A721946CA
:103BF000206809F0EFFE48B11E4804F005FA0023E2
:103C00001A461946206809F0F3FD03E01A491B48DB
:103C10000BF092F8FFF796FF0021042009F016FA46
:103C2000174B01930024022300930394234602942C
:103C300040F2A322134914480AF050F8134B0193A1
:103C40000123009340F22622234611490394029453
:103C500010480AF043F8FFF79DFF0F48006823461D
:103C60002246214604B0BDE8104009F0C1BD00BFA6
:103C700000350020883400202B360300BC3C002097
:103C8000F03400205B360300E950020004340020C9
:103C900066360300653D0200F434002010B52DEDBA
:103CA000048B9FED279A0A24042009F021F907EEDE
:103CB000900A013CF8EE677A14F0FF0439EE279A77
:103CC000F2D1F2EE048AC9EE287A9FED1E8A67EEE1
:103CD000887A9FED1D8A27EE888AB0EE480A08F0A0
:103CE000EDFB18BB19491A480BF026F8194918487A
:103CF0000BF013F819EE100A0BF0D2FC41EC100B8C
:103D0000022113480BF0D5F8134911480BF005F8C0
:103D100018EE100A0BF0C4FC41EC100B02210C4809
:103D20000BF0C7F80D490A480BF006F89FED0C0A96
:103D300038EE400A80EE280ABDEC048B10BD00BFAF
:103D400000000000000061450000803A7236030068
:103D5000BC3C002099360300AC3603003B34030022
:103D60000000FA4370B5344C2DED028B26463348E3
:103D70000AF0F6F900234EF660221946206809F091
:103D800029FE002852D02E492E482F4D0AF0D4FF8C
:103D900000234FF0FF321946286809F01BFE002867
:103DA00042D02A4927480AF0C7FFFFF7CBFE28492F
:103DB00024480AF0C1FFB1EE0C8AFFF76FFFB4EEA2
:103DC000C80AF1EE10FA04D543F698200AF0C8F9B3
:103DD000F3E74EF660200AF0C3F91E4919480AF0CD
:103DE000ABFF1D4917480AF098FFFFF757FF10EE89
:103DF000100A0BF055FC41EC100B022111480BF09E
:103E000055F816490F480AF097FFFFF773FE002395
:103E10001A461946306809F0EBFC00231A46194689
:103E2000286809F0E5FCA2E70D4900E00D490548C6
:103E30000AF082FF9BE700BFF4340020009749019D
:103E4000B6360300BC3C00202C350020D3360300DE
:103E5000F13603006D370300E93703000942030020
:103E60000F3803004F38030038B52DED028B1E4D7F
:103E7000002400234FF47A721946286809F0AAFD3D
:103E8000B0B11A4804F0F8F907EE900A0023B8EE32
:103E9000678A1A461946286809F0AAFCB5EE408AD6
:103EA000DFED137AF1EE10FA08BFB0EE678A05E095
:103EB000104911489FED0E8A0AF03EFF0134E4B22A
:103EC000032C06D10D490C489FED098A0AF034FFF6
:103ED00004E0B5EE408AF1EE10FACAD0B0EE480A1E
:103EE000BDEC028B38BD00BF00350020D03400206F
:103EF000000000008E380300BC3C0020BE380300E8
:103F000030B5114D114985B028460AF015FF104B08
:103F1000019300240123009340F2023223460394CC
:103F200002940C490C4809F0D9FE0C4928460AF0C5
:103F3000F4FE0B48006823462246214605B0BDE842
:103F4000304009F055BC00BFBC3C0020FE380300E7
:103F5000EC34002023390300694402002F390300A8
:103F60002C350020DFED0A7A00EB4103984208D09F
:103F700030F8022B07EE102AB8EEC77A77EE877A70
:103F8000F4E707EE101AB8EEC70A87EE800A70470A
:103F90000000000038B50C4605466408034B0222B9
:103FA0000CF0E6FF35F8140038BD00BF19350200EB
:103FB0002DE9F0412DED028B80460C46FFF7D2FF34
:103FC0009FED208AF0EE408A0025A54221DA38F8DC
:103FD000153007EE903AF8EEE77A013577EEE87A99
:103FE00017EE900A0BF05CFB02460B460BF0ACFBA5
:103FF000064618EE100A0F460BF052FB02460B461F
:10400000304639460BF0EEF90BF058FE08EE100A78
:10401000DBE707EE904AF8EEE77A88EE277A17EEAC
:10402000100A0BF03DFB41EC100B08F0E9FA51ECE3
:10403000100B0BF043FEBDEC028B00EE100ABDE846
:10404000F08100BF0000000070B50F4C0023054652
:104050000E464FF47A721946206809F0BBFC68B12D
:10406000334629460022094803F00CFF002320684C
:104070001A461946BDE8704009F0BABB0449054824
:10408000BDE870400AF058BE00350020883400209A
:1040900042390300BC3C002038B5114904461148A0
:1040A0000AF04AFE40F28A25AC4213D9B4F5E16F1A
:1040B00002D9A4F5967404E0B4F5617F8CBF323C5C
:1040C0000A3CA4B221460120FFF7BEFFB4200AF04B
:1040D00047F8E9E740F6B8300AF042F8204638BD24
:1040E0006D390300BC3C0020F8B51E460D46044661
:1040F000014601201746FFF7A7FF70000AF030F8CD
:10410000ED1BAC4209DA3C44A4B221460120FFF782
:104110009BFF30460AF024F8F3E72046F8BD70B55F
:10412000164604460D4601460120FFF78DFF70003C
:104130000AF016F8022008F0DBFEB0F5167F0AD967
:104140002C44A4B2B4F5805F08D201202146FFF7C9
:104150007BFF3046ECE7601B80B270BD002070BD75
:104160002DE9F04F4300083383B023F0070300AF7D
:10417000ADEB030D6B46002223F8022B0646E84602
:104180000DEB40018B4202D023F8022BFAE74FF4EB
:10419000E160FFF781FF40F6B83009F0E1FF5A22F5
:1041A0000A2140F28A20FFF7BAFF044600283BD1DB
:1041B0009B499C480AF0C0FD9B499A480AF0BCFD07
:1041C0009A4998480AF0A9FD022008F091FE0A22B7
:1041D000014694480AF0F2FD954992480AF09DFD87
:1041E0000A224FF416718F480AF02DFE2146012055
:1041F000FFF72AFF322009F0B3FF8E4989480AF001
:104200008CFD022008F074FE0A22014685480AF05F
:10421000D5FD874983480AF080FD0A224FF41671C4
:1042200080480AF010FEF6E083497E480AF075FDEA
:104230000A2221467B480AF006FE4FF00009254677
:10424000CA464E455FFA89FB00F09780A8B2FFF797
:1042500023FF502C0AD9A4F150012D231E2289B22C
:1042600040F28A20FFF740FF054600E00025734931
:104270006C480AF052FD0A2229466A480AF0B7FD46
:10428000022008F035FEB0F5167F4DD9143CA5424A
:1042900034BF2D235A23ACB20135B5F5805F39D335
:1042A000674960480AF048FD60495E480AF035FDFC
:1042B000022008F01DFE0A2201465A480AF07EFD3F
:1042C0005B4958480AF029FD0A224FF416715548F7
:1042D0000AF0B9FD00210120FFF7B6FE322009F0F7
:1042E0003FFF54494F480AF018FD022008F000FE35
:1042F0000A2201464B480AF061FD4D4949480AF03F
:104300000CFD0A224FF4167146480AF09CFD40F657
:10431000FF7509E0A9B201207B60FFF795FE7B687D
:10432000184609F01DFFABE746493E480AF0F5FC88
:104330000A2259463B480AF04EFD434939480AF0E3
:10434000ECFC0A22214637480AF07DFD3F493548FA
:104350000AF0F2FC3949334828F819400AF0DDFC2C
:104360000A2229462F480AF042FD4FF4FA70A2446F
:1043700009F0F6FE09F1010963E7B5F5C87F05D933
:10438000A5F5C87189B20120FFF75EFE30492548C6
:104390000AF0D2FCBAFBF6FA2E4922480AF0CCFC0D
:1043A0002D4920480AF0B9FC0A2251461D480AF05E
:1043B0001EFD2A491B480AF0B0FC31464046FFF773
:1043C000D1FD10EE100A0BF06BF941EC100B02213D
:1043D00014480AF06EFD31464046FFF7DBFD2049E8
:1043E000044610480AF099FC0A2221460D480AF0BA
:1043F0002AFD1C490B480AF090FC31464046FFF765
:10440000D7FD10EE100A0BF04BF941EC100B022116
:1044100004480AF04EFD20460C37BD46BDE8F08F3B
:1044200087390300BC3C0020BD390300EB39030091
:10443000B7560300FF390300133A0300273A03007D
:10444000353A0300523A030071450300D13A0300A4
:10445000643A0300803A0300B13A0300C73A03000C
:10446000D23A0300DD3A030070B54FF47A7008F0D9
:104470003CFC00200AF086F80120FFF771FEFFF7F0
:1044800045FA1D4D00241D491D480AF055FC002326
:104490004FF0FF321946286809F09CFA48B108200D
:1044A000FFF75EFE002304461A461946286809F005
:1044B0009FF9144912480AF030FC0A22214610489C
:1044C0000AF0C1FC2046FFF721FA00200AF05AF852
:1044D0000D4906460A480AF020FC0A2231460848DF
:1044E0000AF085FC094906480AF026FC43F69820A4
:1044F00009F036FEC7E700BF2C350020F23A030072
:10450000BC3C0020163B03002D3B0300513B030045
:10451000F7B541F61A01684602F074FC544F55484D
:10452000554D564E564C9DE8060002F053FC684629
:1045300042F66E2102F066FC9DE80600384601F066
:1045400009FE2A46314638464E4F0BF0CBFD6846F1
:1045500042F66F2102F056FC9DE80600384601F055
:10456000F9FD2A4631463846474F0BF0BBFD6846F9
:1045700042F66D2102F046FC9DE80600384601F047
:10458000E9FD2A4631463846404F0BF0ABFD684600
:1045900042F67B2102F036FC9DE80600384601F029
:1045A000D9FD2A4631463846394F0BF09BFD684607
:1045B000384902F02DFC9DE80600384601F0CAFD9E
:1045C0002A4631463846344F0BF08CFD6846334955
:1045D00002F01EFC9DE80600384601F0BBFD2A46AD
:1045E000314638462E4F0BF07DFD68462D4902F0CE
:1045F0000FFC9DE80600384601F0ACFD2A46314626
:1046000038460BF06FFD03220021012009F0C8F8A5
:10461000254B032218600021012009F0C1F8234B2B
:10462000032218600021012009F0BAF8204B032270
:1046300018600021012009F0B3F81E4B1E491860D4
:1046400040221E4803F01BFC2023162203211C4895
:1046500003F0D7FE1B4803F00FFB204603F090F950
:104660002A46194920460BF03DFD03B0F0BD00BFBE
:10467000C4330020C835002000320020C55E02008F
:1046800030350020483400209034002008340020C9
:104690008035002024320020F43500200432002030
:1046A0003436002014320020FC3400202C35002049
:1046B000F4340020C43500207436002088340020F3
:1046C000D835002004350020C536020038B5524CDC
:1046D0005248534D02F062FB2046122101F051FD79
:1046E0002046504901F070FD00222046112101F0C2
:1046F00059FD2046022101F049FD2946204601F0DE
:1047000056FD2046484C01F0E5FB2046122101F001
:1047100038FD2046454901F057FD00222046112171
:1047200001F040FD2046022101F030FD29462046DF
:1047300001F03DFD20463E4C01F0CCFB204612210D
:1047400001F01FFD20463B4901F03EFD00222046BE
:10475000112101F027FD2046042101F017FD294613
:10476000204601F024FD2046334C01F0B3FB2046E7
:10477000022101F006FD2046304901F025FD00220E
:104780002046112101F00EFD0221204601F0FEFC21
:1047900020462B4C01F09EFB2046122101F0F1FC3B
:1047A00000222046112101F0FDFC2046012101F0EC
:1047B000EDFC2946204601F0FAFC2046214C01F090
:1047C00089FB2046022101F0DCFC20461E4901F055
:1047D000FBFC00222046112101F0E4FC02212046CE
:1047E00001F0D4FC2046194C01F074FB2046022154
:1047F00001F0C7FC2046164901F0E6FC20460022E5
:10480000112101F0CFFC2046022101F0BFFC20461F
:10481000BDE8384001F05EBBC4330020C83500203D
:1048200099350200A43B030048340020B03B03004C
:1048300090340020C93B030080350020193E03005E
:1048400008340020F4350020D93B03003436002022
:10485000F03B030038B5284C284D294920460AF082
:104860006BFA00220121284602F0CCFB04212846E5
:1048700002F07EFD234920460AF05EFA28462249CE
:1048800002F052FD2846214902F0CEFD284620497B
:10489000204D02F0CCFD204920460AF04DFA284672
:1048A0001E4903F00FFA1E49284603F009FA28466C
:1048B0001C4D03F009FA1C4920460AF03DFA28462F
:1048C00003F086F86421284603F07AF81749204659
:1048D0000AF032FAFFF7FAFE154920460AF02CFAE0
:1048E000FFF7E0F8134920460AF026FA204612495D
:1048F000BDE838400AF020BABC3C00203437002024
:104900000A3C0300303C0300443C030045350200F0
:104910002135020004350020523C03007D3C030099
:10492000933C030030350020A13C0300C13C030050
:10493000E63C03000C3D0300203D030030B54FF47E
:10494000165185B02B480AF000FB2B4929480AF084
:10495000F3F942F21071294800F082FF274800F075
:1049600035FF012008F0C4FF254B186000231A46CC
:10497000194608F03DFF234803F0DAFB18B9224935
:104980001C480AF0D9F921491A480AF0D5F9FFF76D
:10499000B7FA1F4917480AF0CFF9FFF723F91D4965
:1049A000144800240AF0C8F90225FFF753FF1A4BF8
:1049B000019303942346029400954FF4E172174942
:1049C000174809F08BF9174B01934FF416722346E1
:1049D0000394029400951449144809F07FF914498E
:1049E00004480AF0A9F91349024805B0BDE830406F
:1049F0000AF0A2B9BC3C00202D3D03007436002013
:104A000000350020D03400203B3D0300493D030029
:104A10005C3D0300703D0300F0350020833D030042
:104A20002D500200C03500208E3D0300ED4E0200E7
:104A3000983D0300AF3D0300F0B5254E002585B03D
:104A40002B464FF47A7229463068019502958DF80D
:104A50000C5008F0BFFF044690B309225A211D48AC
:104A600000F06EFF08F036F907461A4800F067FEBE
:104A7000044698B108F02EF9C01BB0F5FA7F03D9AF
:104A8000154916480AF049F9124800F06DFE04ABCA
:104A900053FA85F3013503F80C0CE6E703460246AA
:104AA0000146306808F0A4FE9DF80C309DF80B001C
:104AB00043EA00209DF80630102B06D1084900E09B
:104AC000084906480AF038F9204605B0F0BD00BF95
:104AD0000035002074360020EB3D0300BC3C002074
:104AE0001E3E03003A3E030070B50A4C06460D46D2
:104AF0002046442100F027FF3146204600F022FEE8
:104B00002946204600F01EFE2046BDE8704000F019
:104B100075BF00BF7436002070B5274D00234FF4D9
:104B20007A721946286808F055FF2E460446002878
:104B300039D006212C20FFF7D7FF062244211F4839
:104B400000F0FEFE08F0C6F804461C4800F0F7FD31
:104B5000052809DC08F0BEF8001BFA28F5D9184929
:104B600018480AF0E9F8F0E7144800F0FDFD0502E6
:104B7000124800F0F9FD0543104800F0F5FD0F481C
:104B800000F0F2FD04460D4800F0EEFD40EA04207E
:104B900084B20A4800F0E8FD00231A46194630683E
:104BA00008F026FE04E0084906480AF0C5F8254644
:104BB00044EA054070BD00BF003500207436002077
:104BC0009C3E0300BC3C0020C63E030008B5FFF736
:104BD000A3FF000C07EE900ADFED066A9FED060AC0
:104BE000F8EE677A87EEA67ADFED047AA7EE270A59
:104BF00008BD00BF00FF7F47000034C200002F4304
:104C000010B52DED028B9FED138A0024FFF7DEFF18
:104C1000B5EEC00AF1EE10FA09DCB4EEC80AF1EE06
:104C200010FA04D4142008F060F89FED0B0A013448
:104C3000E4B2032C06D1094909480AF07DF89FED3A
:104C4000060A04E0B5EE400AF1EE10FADED0BDEC43
:104C5000028B10BD0000204200000000003F030056
:104C6000BC3C002008B5FFF757FF40F0FF0080B2C2
:104C700007EE900A9FED057AF8EE677A87EE870ACD
:104C8000DFED037A20EE270A08BD00BF00FF7F4753
:104C90000000C84238B52DED028B08F01BF8184B08
:104CA0001A68801AB0F57A7F1D4607D2154B93ED2E
:104CB000000AB5EEC00AF1EE10FA1DDC0024FFF781
:104CC000D1FF0134E4B2032CB0EE408A0ED10E497C
:104CD0000E489FED0F8A0AF02FF80A4B83ED008AE9
:104CE00007F0F8FFB0EE480A286005E0B5EE400A8C
:104CF000F1EE10FAE3D0F0E7BDEC028B38BD00BF57
:104D0000EC350020F83400203B3F0300BC3C002081
:104D100000000000000000002DE9F0432DED028BA3
:104D200083B0FFF7B7FF8DED000AFFF769FF00982A
:104D300010EE104A0AF0B4FC0022314B0AF02EFEAD
:104D400041EC100B41EC180B07F0D4FB204657EC5C
:104D5000106B0AF0A5FC26A3D3E900238046894600
:104D60000AF0F2FC24A3D3E9002304460D46404692
:104D700049460AF037FB02460B46204629460AF010
:104D80000DFEB0EE480AF0EE680A04460D4607F044
:104D9000B1FB22462B46304639468DED000B0AF01A
:104DA00021FB15A3D3E900230AF0CEFC9DED000BF7
:104DB000064653EC102B0F460DA1D1E900010AF075
:104DC0000FFB22462B460AF00BFB02460B463046F1
:104DD00039460AF0E3FD0AF071FF07EE900AB0EEE3
:104DE000080A37EEC00A03B0BDEC028BBDE8F083C1
:104DF0000000000000A03140E17A14AE47616E402F
:104E000000005940000000002DE9F0432DED028B19
:104E100083B0FFF73FFF8DED000AFFF7F1FE00982A
:104E200010EE104A0AF03CFC00222F4B0AF0B6FDAF
:104E300041EC100B41EC180B07F05CFB204657ECE3
:104E4000106B0AF02DFC24A3D3E900238046894689
:104E50000AF07AFC22A3D3E9002304460D4640461B
:104E600049460AF0BFFA02460B46204629460AF098
:104E700095FDB0EE480AF0EE680A04460D4607F0CC
:104E800039FB22462B46304639468DED000B0AF0A1
:104E9000A9FA13A3D3E900230AF056FC9DED000BF9
:104EA000064653EC102B0F460BA1D1E900010AF086
:104EB00097FA22462B460AF093FA02460B463046F2
:104EC00039460AF06BFD0AF0F9FE00EE100A03B055
:104ED000BDEC028BBDE8F0830000000000A0314073
:104EE000E17A14AE47616E400000594038B52DEDAF
:104EF000028B474C2068002342F21072194608F0DA
:104F000069FD0028F6D0434802F076FA002874D0F4
:104F100007F0E0FE0546FFF773FEB0EE408A07F0AB
:104F2000CDFA18B1B0EE480AFEF700FC0A2009F0ED
:104F300017F9FFF7AFFEB0EE408A07F0BFFA18B1DD
:104F4000B0EE480AFEF722FC0A2009F009F9FEF744
:104F50008BFF07F0B3FA18B1FEF786FFFEF746FCA9
:104F60000A2009F0FDF8FFF767FD0AF077FB41EC36
:104F7000100B07F075FA18B1FFF75EFDFEF760FC45
:104F80000A2009F0EDF8FFF73FFFB0EE408A07F086
:104F900095FA18B1B0EE480AFEF76AFC0A2009F04B
:104FA000DFF8FEF77BFEB0EE480A07F087FA18B18B
:104FB000FEF774FEFEF77AFC1749184809F0ADFEBB
:104FC00007F088FE0A22411B144809F0F7FE144935
:104FD000124809F0B1FE002009F0D4FA1149054643
:104FE0000E4809F09AFE0A2229460C4809F0FFFEF5
:104FF00043F6982007F079FE85E7064802F0FCF9B1
:1050000000287FF477AF0849044809F095FE71E75E
:10501000FC34002034370020853F0300BC3C0020D6
:10502000A43F0300B23F0300C93F030038B500208E
:1050300009F0A8F9002009F0A5FA0546214802F078
:10504000DBF908B900242CE01F4801F035F928B13C
:10505000FFF7D6FDFEF772FC012400E004461B4872
:1050600001F02AF920B1FFF715FEFEF797FC0124A5
:10507000174801F021F920B1FEF7F6FEFEF7BEFC5D
:105080000124144801F018F920B1FFF7BDFEFEF726
:10509000DFFC01E0002CD5D00F49104809F04CFE90
:1050A00001244FF4FA6009F05BF8002CC2D10C49DE
:1050B0000A4809F032FE0A222946084809F097FEFC
:1050C0002046B5E734370020C433002048340020A0
:1050D0009034002008340020D13A0300BC3C00206A
:1050E000EB3F0300000000002DE9F0472DED0A8B97
:1050F00082B0FEF727FD4FF4FA6007F0F6FDFEF7E9
:10510000F9FC4FF4FA6007F0F0FDFFF705FEF0EE52
:10511000409AFEF7C3FDF0EE408AFFF775FE07F0F8
:10512000D9FD9FED3F8A06464FF44874B0EE489A89
:105130003C4F002347F230521946386808F04AFCC9
:10514000002800F0B88207F0C5FD8246FEF7A6FDF4
:1051500010EE100A0AF0A4FA2DA3D3E900230AF0F6
:10516000F3FA804618EE900A89460AF099FA2AA3C3
:10517000D3E900230AF0E8FA02460B4640464946C6
:105180000AF030F90AF09AFD00EE100A08EE900AD3
:1051900007F094F918B92449244809F0BEFD79EEC6
:1051A000E87AFDEEE77AB8EEE70A17EE905A07F0D4
:1051B00085F9804620B91E491C4809F0BDFD4546C9
:1051C00007EE905AB8EEE7AADFED1A7A3AEE499A5E
:1051D000002DC9EE27AA03DDB4F57A6F06DB6FE276
:1051E00000F06E82B4F5487F40F36A82B0EE4A0A5E
:1051F00007F064F9002800F063824FF496736B4364
:1052000007EE903AF8EEE77A64E200BFAFF3008071
:105210009A9999999999B93FCDCCCCCCCCCCEC3F0B
:1052200000000000F434002009400300BC3C0020D2
:105230005540030000009643007C92485FED027ADF
:10524000B4EEE78AF1EE10FAA4BFF2EE047A38EE7B
:10525000678AB0EE480A07F031F930BBD049D1482F
:1052600009F06AFDD049CF4809F057FD18EE100A41
:105270000AF016FA41EC100B0221CA489FEDCB8AC6
:1052800009F017FECA49C74809F047FD0A22294616
:10529000C44809F0E2FDC749C24809F03EFD0A22B0
:1052A0004FF49671BF4809F0CEFD4FF03C0808FB63
:1052B00005F3DFEDC1BA9FEDC17A07EE903A68EED3
:1052C0002BBAF8EEE77A77EEAB7AEAEE877A9FEDC3
:1052D000BC7A77EE877AFDEEE77AB8EEE70A17EE4A
:1052E000904A07F0EBF8002840F08B80B549AD48B4
:1052F00009F022FDB449AB4809F01EFDB349A948A5
:1053000009F00BFD0A224146A64809F066FDB049A6
:10531000A44809F002FD0A222946A24809F09DFD91
:10532000AC49A04809F0F9FC19EE900A0AF0B8F966
:1053300041EC100B02219B4809F0BBFDA64999489E
:1053400009F0EBFC18EE900A0AF0AAF941EC100BF8
:105350000221944809F0ADFDA049924809F0DDFC16
:105360009FED8D0B02218F4809F0A3FD9C498D48CC
:1053700009F0D3FC18EE100A0AF092F941EC100B78
:105380000221884809F095FD9649864809F0C5FC38
:105390000A222946834809F060FD9349814809F0B3
:1053A000BCFC0A224FF496717E4809F04CFD8F49EF
:1053B0007C4809F0B2FC0A2240F6B831794809F07D
:1053C00042FD8B49774809F0A8FC1AEE900A0AF0D2
:1053D00067F941EC100B0221724809F06AFD85491A
:1053E000704809F09AFC1AEE100A0AF059F941ECDB
:1053F000100B02216B4809F05CFD7F49694809F0F8
:105400009BFCB4F5487F40F36881B4F57A6FA8BF80
:105410004FF47A64FFF7F8FC9FED789A20EE090AC2
:10542000BDEEC09AB8EEC90A07F048F818B9744939
:105430005C4809F072FC07F04DFC864280F00B815D
:10544000FFF7DEFBB0EE40BAFFF724FC0A20F0EED7
:1054500040AA08F085FE07F03DFC6A490546514820
:1054600009F05BFC18EE900A0AF01AF941EC100BF7
:1054700002214C4809F01AFD63494A4809F04DFCE5
:1054800019EE900A0AF00CF941EC100B0221454884
:1054900009F00CFD5D49434809F03FFC20460AF045
:1054A000EDF800225A4B0AF079FA41EC100B022178
:1054B0003C4809F0FBFCB2EE04CA5649394809F0F1
:1054C0002CFC2BEE0CBAFCEECB7ACDED017ABDF8BC
:1054D00004000AF0D3F800224F4B0AF05FFA41ECC7
:1054E000100B02212F4809F0E1FC4C492D4809F02E
:1054F00014FC6AEE8CAAFCEEEA7ACDED017ABDF8D6
:1055000004000AF0BBF80022434B0AF047FA41ECD2
:10551000100B0221234809F0C9FC4149214809F038
:10552000FCFB19EE100A0AF0A9F800223A4B0AF027
:1055300035FA41EC100B02211A4809F0B7FC394941
:10554000184809F0EAFB1BEE900A0AF0A9F8304B64
:1055500000220AF023FA41EC100B0221114809F055
:10556000A8FC002009F00EF82F4906460D4809F066
:10557000D4FB0A2231460B4809F039FC2B49094873
:1055800009F0CBFB0A22CAEB0501064809F016FC1C
:105590001D494DE0AFF3008000000040E17A843FF8
:1055A000B0400300BC3C0020E240030000000000CB
:1055B000EE400300FA4003000AD7233C00803B453D
:1055C0000000AF440641030043410300554103007E
:1055D000904103005B4103006A4103007B410300EB
:1055E000824103008E4103009D410300AB41030053
:1055F000B1410300BE410300D04103000000C84296
:105600000C4203006B420300B756030074420300D0
:1056100000408F407F420300000059408F4203004A
:105620009E420300AA420300B6420300CE4203009A
:105630002D4809F072FB07F04DFB0A22411B2A4856
:1056400009F0BCFB2949284809F076FB07F042FB2A
:1056500000F56A466036FFF75FFBB0EE409A06F051
:105660002DFF28B92249204809F066FBB0EE699A5F
:10567000204D00234FF47A721946286808F0AAF9E1
:1056800068B3A3B2002202211B4802F0FBFB0023F7
:105690001A461946286808F0ABF81849124809F06C
:1056A0003CFB00231A461946386808F0A1F8F0EED2
:1056B000499AB0EE4A9A4FF4967008F051FD37E5DA
:1056C000DFED0F7AB4EEE78AF1EE10FA3FF6B6ADF1
:1056D000F2EE047A38EE278ABBE500249AE60949FF
:1056E000014809F029FBD8E7BC3C0020A43F030097
:1056F000F54203000035002088340020393D0300C6
:10570000007C92C88F3503002DE9F84380460D4692
:10571000174601EB02090C464C45A4EB050609D0DF
:10572000D8F8003014F8011B1B6840469847002841
:10573000F2D100E03E463046BDE8F88370472030A5
:1057400009F0EABB38B5437F0D462BB100F1680480
:10575000204609F0EFFB08B1002038BD204629465D
:1057600009F0BDFB012038BD203009F0C7BB203057
:1057700009F0D8BB2DE9F0411E464FF47A7300259D
:105780008360104B4560044640F8203B174688462E
:1057900009F09AFB04F1680009F096FB0A4B9DF8AA
:1057A0001820C4F8108053F8222062769DF81C203F
:1057B000676153F82230A376267665772046BDE8E8
:1057C000F08100BF48430300785B0300837E4FF005
:1057D000A04203F5E07330B5012140F20C64C176BC
:1057E00042F82340437E03F5E07342F82340036907
:1057F0004FF0CC72C3F824250622C3F80025827E20
:10580000C3F80825427EC3F80C25027E53B2D2B2FB
:1058100002F01F055C09A94060340F4D002B45F8CC
:10582000241006DA0D4B02F00F02134440221A76C0
:1058300006E003F1604303F56143402283F800234F
:10584000037E01215AB203F01F0301FA03F3520948
:10585000014941F8223030BD00E100E0FCEC00E0FD
:10586000C37EABB103690022C3F80025094A914207
:1058700007D9094A914294BF4FF080614FF0C86147
:1058800001E04FF0CC710622C3F82415C3F80025BF
:10589000704700BFA086010090D003002DE9F843B7
:1058A0000646894698461546B2B100F120073846AB
:1058B00009F020FB34690122C4F888952262C4F8FB
:1058C0003475C4F838552260D4F84C313BB9D4F85B
:1058D0002431002BF8D002E01046BDE8F883002305
:1058E000C4F84C31D4F85C311BB9D4F82431002B06
:1058F000F8D00023C4F85C310122B8F1000F02D1C6
:10590000D4F8243143B16261D4F80431002BFBD0C8
:105910000023C4F8043107E0E261D4F84831002BD9
:10592000FBD00023C4F84831D4F8243113B100234C
:10593000C4F82431D4F83C053066C0B2BDE8F88321
:105940000123FFF7ABBF10B5044680F8B0106830F4
:1059500009F0D0FA0123637710BDF8B5056900237B
:105960004377044690F8B030C5F888350126683092
:105970002E62C5F844050F4609F0CEFA2369C5F832
:1059800048059E60D3F850211AB9D3F82421002A83
:10599000F8D00022C3F85021D3F860211AB9D3F807
:1059A0002421002AF8D00022C3F86021012217B96F
:1059B000D3F8241141B15A61D3F80421002AFBD055
:1059C0000022C3F8042107E0DA61D3F84821002A55
:1059D000FBD00022C3F84821D3F8240168B100228B
:1059E000C3F82421D3F8C404C3F8C404022804D0A3
:1059F000042814BF04200320F8BDF8BD0121FFF7DF
:105A0000ACBF4369D3F8642170B5044682B100226B
:105A1000012500F12006C3F864210577304609F01E
:105A200069FA63694022C3F83465C3F838251D63F9
:105A30006369D3F86821D2B10025C3F8685104F135
:105A40006806012363772577304609F053FAD4F8C6
:105A5000B43003B19847657765693046C5F8446549
:105A600009F05AFA6369C5F8480501225A63636967
:105A7000D3F804215AB10022C3F80421227F32B1A5
:105A8000D3F83C05D4F8B830206603B19847636971
:105A9000D3F8242142B10022C3F82421D3F8D02422
:105AA000C3F8D02401225A6170BD00000148FFF7FD
:105AB000A8BF00BF7436002007B51A2319228DE84D
:105AC0000C004FF04022042311460348FFF752FE1A
:105AD00003B05DF804FB00BF7436002072DF70472E
:105AE00073DF704774DF70470022C277027070471F
:105AF00070B51D46C37F0E461146EA181D2A04469E
:105B00000EDC18446A1CE254023000F8016C2A468C
:105B10000AF08BFBE27F0232AB18E377012070BD05
:105B2000002070BD2DE9F041002688B007460D46E3
:105B300001EBC2083446454516D0284601F06DF900
:105B4000102802D0802809D00CE008AA631C02EBC0
:105B500044042A8824F8202CDCB203E00EB1002093
:105B600017E06E680835E6E714B966B9012010E061
:105B7000630003F0FE036A4603213846FFF7B8FFCF
:105B80000028F2D1EBE71023324607213846FFF711
:105B9000AFFF08B0BDE8F08113B50831044603C972
:105BA00001228DE8030069462046FFF7BBFF02B0E3
:105BB00010BD000010B588B06946044620220A488E
:105BC00001F0C6FBE27F13181D2BC4BFC2F11D02FA
:105BD000D0B20346CCBF082109216A462046FFF710
:105BE00087FF08B010BD00BF3437002013B504464E
:105BF000064801F0DFFB02AA012302F8010D0A2189
:105C00002046FFF775FF02B010BD00BF34370020FB
:105C100007B502AA012302F8011D1946FFF768FF24
:105C200003B05DF804FB08B50346FFF75DFF0121F3
:105C3000002283F8211020219984F420198583F80B
:105C400020201E21D88483F822205985DA859A8560
:105C50001A635A63184608BD418570478184C2841F
:105C60000185704780F82110704700007FB5044619
:105C70000E4615460021102268460AF0FCFA94F8F8
:105C800020308DF8003001216846ADF80A60ADF88B
:105C90000C50FFF725FF70B9084801F0EDFBE28DCD
:105CA000268595424FF0010094BF521B921A84F84A
:105CB0002200E28500E0002004B070BD34370020EF
:105CC00038B50C4DC185818595F8C732C17F05F582
:105CD0002A720446FFF702FF50B92846FA2101F064
:105CE0006CFB628DA18C2046BDE83840FFF7BEBF3B
:105CF000002038BD3437002008B50346FFF7F2FE18
:105D000030B983F82200034801F0C7FB012008BD29
:105D1000002008BD3437002038B50B88112B04460D
:105D200012D01B2B24D0102B59D1CD7B012D56D155
:105D3000002380F822302A4801F0AFFB294628488A
:105D4000BDE8384001F0B5BB8988254800F0BCFCAF
:105D5000012844D10021224801F0ABFB94F8213006
:105D6000002B3CD0A18D2046BDE83840FFF7A8BFEE
:105D70000B7A002B33D180F822304FF4FA71184897
:105D800001F01BFBA38D23B9636B03B1984700227D
:105D900005E0E38D4BB1636B03B19847E28DE18C75
:105DA0002046BDE83840FFF761BF0D4801F075FBA4
:105DB000236BA3B108F0F6FB01284FF0100002D1CD
:105DC0000AF014FA01E008F075FE0023226B03725A
:105DD000036043724260BDE8384008F0D9BE38BD68
:105DE0003437002010B5044608F0DCFB01282046BB
:105DF00003D1BDE810400AF0F9B9BDE8104008F041
:105E000059BE102202801822428000224260826025
:105E100070470000014800F0FFBB00BF283A002097
:105E2000F7B50F888C88102F05460E4602D0112F2B
:105E300019D038E021461D4800F046FC022832D136
:105E40006B6883B33846FFF7CDFF002269680260B4
:105E500042720122027202AA034642F8084D4160D2
:105E60001068D86019E02146104800F02DFC022887
:105E7000074618D1AB68B3B11420FFF7B3FFA96888
:105E800041600022026042720772327A01920094ED
:105E90006A46034603CAD8601961184603B0BDE8D4
:105EA000F04008F075BE03B0F0BD00BF34370020ED
:105EB000A2DF7047A3DF7047A4DF7047A5DF7047FC
:105EC000A6DF7047704710B5044609F008FA20466F
:105ED00010BD000070B55A4B04461B680361061DD7
:105EE00096B0304600F0A7FF94F8223013F032014C
:105EF00001BF94F8232061F3030261F3071284F8D1
:105F0000232013F00C0101BF94F8242061F3030255
:105F100061F3071284F8242013F030050ED04FF0FF
:105F20000003012262F342038DF80630454B1B78D3
:105F30008DF8043094F823308DF805301C220021B0
:105F40000FA80AF098F994F822308DF83C3000231D
:105F50000DB91A4600E001AAADF8083014924FF0CE
:105F60000003012262F3420360698DF80A3094F85D
:105F700023308DF8083058B103784BB110900BF0F6
:105F8000D8F902AB80B2ADF84400ADF846001393E7
:105F9000A37E13B104F11A031293142200210DEB16
:105FA00002000AF068F904F12303069394F82530FF
:105FB0000596DB0754BFE3890023ADF81C30E38965
:105FC000ADF8203005AA04F126030FA90020FFF741
:105FD0006FFF054670BB637E33B30346012262F355
:105FE00042038DF80E3094F82330ADF80C008DF894
:105FF0000C30154B18680490142229460AA80AF0A0
:106000003AF90223ADF83030ADF8343004AB0A93DE
:1060100003AB0B930DF1020204F118030AA9284601
:106020000E93FFF747FF40B9257B2DB9214607485E
:1060300000F048FD284600E0002016B070BD00BF0B
:10604000303700206043030062430300A437002080
:106050000B88502B73B505460C4615D0512B4DD1EE
:106060008B79022B03D1436B0BB108319847A3798D
:10607000012B43D12B6B002B40D004F108012846A3
:1060800002B0BDE870401847CA88C38C9A4205D157
:10609000866B1EB1CB890A8A1231B047E2886B8DBC
:1060A0009A422BD1EB6B33B1628AADF80420BDF874
:1060B000041028469847124801F0BFF9F0B108F0E3
:1060C00071FA01284FF0100002D10AF08FF801E0B8
:1060D00008F0F0FC0022026042720A49416001228D
:1060E000027202AAA18842F8041D03461068D86013
:1060F000184602B0BDE8704008F04ABD02B070BD5D
:1061000034370020697502001422C281104A1278C7
:1061100080F8242080F8232001214FF00102002381
:1061200061F342020373036143610383C0F81A30D1
:10613000C0F81E3080F8223080F82520C384038503
:1061400083854385036343638363C363704700BFF1
:106150006043030013B504468DE806002346064954
:1061600043F8041B9DE8030083E805002046FFF781
:10617000CBFF204602B010BD704303000123037320
:10618000704780F822107047C181704790F8253021
:1061900019B1C1816FF3000301E043F0010380F8FE
:1061A0002530704780F8231080F824207047C163A1
:1061B00070470A1C90F82530416318BF012262F332
:1061C000041380F8253070474161704751F8263F2D
:1061D00003604B684360704713B5C4890191A242C4
:1061E00028BF224600230093C18CADF800204FF653
:1061F000FF706A46FFF760FE10B9BDF8000000E0CE
:10620000184602B010BD38B5054608460C460BF0DE
:1062100090F8214682B22846BDE83840FFF7DCBF3F
:1062200007B502AB012203F8011D1946FFF7D4FFA1
:1062300003B05DF804FB07B502AB022223F8021D90
:106240001946FFF7C9FF03B05DF804FB07B502ABC1
:10625000042243F8041D1946FFF7BEFF03B05DF8A2
:1062600004FBFFF7F3BF000030B5054685B01148C9
:1062700001F0C2F8E0B1688DD0B10223002402948D
:106280000C48ADF808300DF10603039301F0D2F885
:1062900002AA698DFFF712FE43F20143984202D130
:1062A000ADF8064002E008B180B201E0BDF806009A
:1062B00005B030BD3437002008B590F8222002F038
:1062C000100202F0FF0322B1FFF7CEFF00F0010041
:1062D00008BD184608BD00002DE9F04190F82230B5
:1062E00003F010030E4686B0054603F0FF01002BB5
:1062F00046D0C489944228BF1446FFF7DDFF074605
:10630000002837D0214801F095F801461F4800F0D9
:1063100002FA03381FFA80F89CB31C4801F08AF88F
:1063200001461A4800F0E4F958B3A04543464FF03F
:10633000000128BF2346102202A8ADF8063009F05C
:106340009AFF01238DF80A30EB8CADF808300F4826
:1063500005960DF10603049301F06CF802A9FFF70E
:10636000AFFD28B9BDF80630E41AA4B21E44D3E745
:10637000002706E0224631462846FFF72DFF00E0C1
:106380000F46384606B0BDE8F08100BF3437002024
:1063900007B502AB012203F8011D1946FFF79CFF68
:1063A00003B05DF804FB07B502AB022223F8021D1F
:1063B0001946FFF791FF03B05DF804FB07B502AB88
:1063C000042243F8041D1946FFF786FF03B05DF869
:1063D00004FBFFF7F3BF9ADF70479CDF70479DDF38
:1063E000704710B5044608F0DDF80128204603D1B7
:1063F000BDE8104009F0FABEBDE8104008F05ABBF5
:10640000002383827047806900F0F6B8808A704765
:106410002DE9FF410B88CF88382B04460D4674D0F8
:10642000392B03D0362B40F0E180B9E00B7B012BF8
:1064300002D0022B32D0D9E0C36A002B00F0D68004
:1064400090F8342012F0010FCA8924D01046FFF7CB
:10645000C8FF0646002800F0C980EA8905F110014E
:1064600009F0E3FE1820FFF7BCFFE26A4260002259
:10647000427203220272EA89066003920194029634
:1064800001AA034603CAD86019611068586118460A
:1064900008F07EFBAAE010319847A7E0036B002BC1
:1064A00000F0A48090F834208E8812F0020FCA8980
:1064B00024D01046FFF795FF0746002800F096808D
:1064C000EA8905F1100109F0B0FE1820FFF789FFF5
:1064D000226B42600022427203220272EA89076044
:1064E00003920194029701AA034603CAD860196176
:1064F00010685861184608F04BFB01E010319847CE
:1065000069893046FFF76BFF70E017B104F11C009A
:106510006AE000F11C060A8A3046394601F08FFC19
:1065200095F80C80B8F1010FF0D0B8F1040F5DD1EF
:10653000A06900F061F801462E4800F0ECF8228DC9
:10654000A38A053880B2904228BF1046B0B10197A7
:10655000EA89ADF806302B8AADF80A001344ADF88D
:106560000830A069636A8DF80480039300F044F852
:1065700001A9FFF732FF002838D00FE00522029072
:1065800003908DF80420A069ADF8063001228DF843
:10659000052000F031F801A9FFF71FFF304623E086
:1065A000806900F029F80146124800F0B4F8064668
:1065B000002FABD104F11C07EA8905F11001384620
:1065C00001F03DFC238D73B1033EEB89B6B2013E71
:1065D000B34208DBA06900F00FF8628DA18A92B285
:1065E000FFF7F9FE10B1384601F041FC04B0BDE8F8
:1065F000F08100BF343700208088704710B5044612
:10660000043001F0D0FB012323804FF6FF73638039
:1066100000232375204610BD017D10B5044621B925
:10662000043001F0C4FB0123237510BD007D7047C9
:106630000B88322B10B5044611D0332B1BD0302BD6
:1066400027D1CB8833B94B8923B10A221144201DAD
:1066500001F0F5FB201DBDE8104001F008BCCB881F
:10666000002BF7D14A89002AF4D0013A02EB8202CA
:1066700052000C320AE0CB88002BEBD14A89002A69
:10668000E8D0013A02EB42025200083292B20A31DB
:10669000DDE710BD8FDF704790DF7047ADDF7047DB
:1066A00010B56422044600210C3009F0E4FD1723E4
:1066B00003222380E3800123A270E37023712272FE
:1066C0006372A372204610BD142303FB0101487BB3
:1066D000704710B5142303FB02120832044652F827
:1066E000080F206091889379A180A371204610BD86
:1066F000042908B50DD8142303FB0101886948B1AA
:1067000000236622194607F065F9003018BF012002
:1067100008BD002008BD142303FB0101C889704790
:10672000F0B587B004AC16461F460D4620464FF420
:10673000285100F067FB8DE8C0004FF6FF7303930C
:106740000123029394E80C002946024800F0BAF8AD
:1067500007B0F0BDA4370020F7B50B888D88232B38
:1067600004460E4673D036D8112B3BD0212B74D063
:10677000102B40F08F80142303FB050201211173BD
:10678000F17B517356F8080F106102F11001B079D6
:10679000B7888F80EEB2887103FB06431721D18141
:1067A0005B7B012B0CBFE078607A014607F016F89E
:1067B000142303FB054203FB06469061737B012B08
:1067C0000CBF2079A07A014607F008F8142303FBD8
:1067D0000544E0615EE0552B49D0572B10D03C2B8F
:1067E00058D121E0142303FB05040025A06925737B
:1067F00007F0A0F9A561E06907F09CF9E56149E0BF
:10680000142303FB0504A369002B43D00025B279B0
:10681000EBB29A4205F101053CD900231A4619460C
:10682000A06906F0E5FFF2E7142303FB0504E36922
:1068300083B30025B27AEBB29A4205F1010529D95A
:1068400000231A461946E06906F0D2FFF2E700225B
:1068500011462846FFF720FF1CE0002301A9284627
:106860008DF804308DF80530FFF714FF12E0142383
:10687000EAB203FB0202C988527B012A0CBF0288DC
:10688000C28803FB0504914228BF1146E1812846D6
:10689000FFF704FF03B0F0BD99DF704738B5044639
:1068A000F82500F5F87001F07EFA2A46002120460E
:1068B00009F0E1FC2A460021601909F0DCFC2046C1
:1068C00038BD0000F0B585B08DE80C00BDF8303063
:1068D000ADF80C30BDF83430ADF80E300F466E46D2
:1068E00000F5F875284601F0A8FA044628B11248C8
:1068F00000F0A6FD06F0F9F9F4E70121284601F0C1
:1069000056FABDF82C200A99284601F065FA03AA28
:1069100031463846FFF7C0FF28B94FF4FA712846D0
:1069200001F05FFA0446284601F04AFA24EAE470CE
:1069300080B205B0F0BD00BF343700202DE9F04F24
:106940000E888F88A6F11003012B85B005460C46F2
:1069500012D84FF000082A785FFA88F39A420BD9D0
:106960009B002B44112E586803680CBF1B685B68A2
:10697000984708F10108EEE7514800F05BFD8742B7
:1069800013D14FF0000A0AE0502E13D0512E04D13B
:10699000B4F80890B9F1000F0FD10AF1010A95F887
:1069A00054205FFA8AF39A42EED805F5A67A4FF0A2
:1069B00000091EE0B4F80690ECE71633684655F877
:1069C00023804146FFF702FCBDF800304B456DD0F7
:1069D000414602A8FFF7FAFBBDF80C304B45DCD16D
:1069E00064E05AF8040FFFF70EFD874206D009F164
:1069F000010995F84C319945F3DB16E0382E03D0A8
:106A0000392E01D0362EF2D1B4F80A80B8F1000F39
:106A1000EDD0DAF800B05846FFF7F8FC8045E6D133
:106A200021465846FFF7F4FCE1E7112E26D1002459
:106A300095F8F820E3B29A4201D8002618E005EB59
:106A40008303D3F8FC008388BB4202D103681B6830
:106A500098470134ECE705EB8404D4F85001FFF7C4
:106A6000D2FC874203D1D4F85001FFF7C9FC0136AC
:106A700095F84C31F4B2A342EDD81EE0352E1CD16E
:106A80006189D1B1A2890E34231B901CB3FBF0F3B2
:106A90008B4205F5F87503D2A11C284601F0CFF909
:106AA000284605B0BDE8F04F01F0E1B9D8F8003054
:106AB0002146DB68404698476FE705B0BDE8F08F98
:106AC0003437002090F85430282B1FBF5A1C16333F
:106AD00080F8542040F8231014BF01200020704794
:106AE0000378132B9FBF5A1C027000EB8300416098
:106AF00094BF0120002070478ADF704710B504461C
:106B000007F050FD0128204603D1BDE8104009F0F0
:106B10006DBBBDE8104007F0CDBF00000121417002
:106B200080218170084900220270C2708280027345
:106B3000826002614261034600F1180208684968F8
:106B400003C21846704700BF8043030010B50446D7
:106B5000C1831830FFF7D0FF28B9044800F08CFC3F
:106B60000120207010BD002010BD00BF3437002070
:106B700038B59DF81450C2B148780C78984204D1C9
:106B8000013C0231E4B206D111E0E0430244013499
:106B9000D2B22144EFE715B1AC4228BF2C462246C1
:106BA000049809F042FB204638BD104638BD08461F
:106BB00038BD37B5CC7B9DF8185010318DE82800D2
:106BC0001346E208FFF7D4FF03B030BD2DE9F04FC4
:106BD0008FB002AC80462046894684E80C0000F065
:106BE0001CF9C0B2102807D102238DF814300323FA
:106BF0008DF81530274606E006238DF81430039FE4
:106C000007238DF815300026C508B2461F22002143
:106C100006A809F030FB05AB4946F25CCDF800A0B0
:106C200006AB4046FFF7C5FF0DF1180B04465CB1FB
:106C30002A463946584609F0E9FA08B9012007E022
:106C4000641BAB44E4B2F2E70136022EDED12046EB
:106C50000FB0BDE8F08F00002DE9FF410B88112B2C
:106C600004460D466FD002D8102B5FD08DE01B2B51
:106C70007BD01D2B40F0898090F9022091F91630CD
:106C80009A4200F38280037B01F1080613B9E3788E
:106C9000BBB925E04FF00008237B5FFA88F7BB42C1
:106CA0000BD9A36803EBC7030CCB31462046FFF793
:106CB0008DFF08F101080028EED0237BBB42E6D10E
:106CC00063E002230093FF2203AB31462046FFF727
:106CD00070FF002859D0A288BDF80C309A4254D1D8
:106CE0002F20FFF70BFF343507463146034651F896
:106CF000042B43F8042BA942F9D10A881A808A7818
:106D00009A702369002B40D01020FFF7F7FE22690C
:106D10004260002242720122027204AA076042F815
:106D2000047D03461068D86018462CE0CB7B022B0C
:106D30002BD100230370164800F0AFFB012114484B
:106D400000F0B7FB21E089881148FFF7BDFC02285D
:106D50001BD12178C9B90E4800F0ABFB6378A3B111
:106D6000E18B2046FFF7F2FE0FE00B7A012B0CD1EE
:106D7000436953B11020FFF7C1FE00226169026030
:106D800041604272027207F003FF04B0BDE8F08177
:106D900034370020A0DF70477047000037B500F19E
:106DA00008050446284600F046F829460DF106027B
:106DB0000120FFF7EFFF054628B9044B04481C608B
:106DC0002146FFF78DFE284603B030BD3037002046
:106DD000A437002013B504468DE806002346064973
:106DE00043F8081B9DE8030083E8050000232046C4
:106DF000A38002B010BD00BF9043030062DF704764
:106E000063DF704701238370002301804360704774
:106E1000002383700380416070478378012B06D084
:106E2000426832B9012B8CBF8020002070471020AF
:106E300070478020704708B58378024653B9406890
:106E400040B1911CFFF7DAFF10205168BDE80840FF
:106E5000FFF7D6BF002008BD00680B6820F07F4018
:106E600023F07F43C31A58425841704748DF7047A8
:106E700010DF704775DF704776DF704777DF704748
:106E800078DF70477ADF70477CDF70477DDF7047BF
:106E90007FDF704786DF7047A9DF7047AADF704742
:106EA00060DF704769DF704761DF704767DF7047F9
:106EB0007047132006F010B937B50E4C0E4DD4F8BC
:106EC000240300234FF0FF32194606F083FD00280B
:106ED000F5D001A8FFF7CAFF10B10528F9D1EEE7F8
:106EE0000198831E012BF4D8002DF2D005F0EAFFA3
:106EF000EFE700BF34370020C5CE020010B50446CE
:106F000007F050FB0128204603D1BDE8104009F0EE
:106F10006DB9BDE8104007F0CDBD10B5044607F0CF
:106F200041FB0128204603D1BDE8104009F066B9B5
:106F3000BDE8104007F0CABD70B50446FFF7B0FBCE
:106F400004F17000FFF7AAFC04F51C70FEF76BFE5D
:106F500004F52A70FEF7C8FD04F53270FFF7DEFD78
:106F600004F53A70FEF74DFF04F53D70FFF746FB60
:106F700004F54C7000F0FCFD4FF400630021C4F8F0
:106F80000C330A23C4F8101384F81133012384F856
:106F90002C334FF6FF7610251823A4F8183384F805
:106FA000101384F8141384F81513C4F82013C4F8CC
:106FB0002413C4F8281384F81C13A4F8806384F8FD
:106FC0008213A4F81653A4F81A13C4F88413C4F84F
:106FD0008813502204F2923009F04DF903224FF049
:106FE000010362F3061384F88C33072384F88D338E
:106FF00084F88E53A4F8A46384F88F2384F8902334
:10700000204670BD70B59B4B80F8141390B00546B8
:1070100080F8152318680590974905A8FFF728FF01
:10702000002840F06E8195F811130D90934A0E9050
:107030000F908DF8341001200DA90692FFF732FF52
:10704000002840F05E8195F814230D908DF83420CF
:1070500095F815238DF83520003218BF01220E90C7
:107060000F908DF836200DA9069A4020FFF71AFFE1
:10707000002840F0468195F810230D900E900F9057
:1070800062F300008DF83400069A0DA9A020FFF7E6
:1070900009FF002840F03581D5F80C230E900F90A1
:1070A0000D920DA9069AA120FFF7FCFE002840F0E2
:1070B000288195F8142322B995F81523002A45D183
:1070C0008AE02A880D900E900F900124ADF83620AA
:1070D0000DA9069A8DF834402320FFF7E3FE00281F
:1070E00040F00F8195F814230D908DF83620AA7882
:1070F0000E900F90ADF838200DA9069A8DF8344007
:107100002020FFF7CFFE002840F0FB80EA780D90AA
:107110000E900F908DF836200DA9069A8DF8344008
:107120002220FFF7BFFE002840F0EB802A790D9067
:107130000E900F908DF836200DA9069A8DF83440E8
:107140002120FFF7AFFE0028B6D0DAE000220D9232
:107150000E920F92EA88ADF836200224069A8DF836
:1071600034400DA92320FFF79DFE002840F0C98080
:1071700095F815230D908DF836202A7A0E900F90F1
:10718000ADF838200DA9069A8DF834402020FFF77D
:1071900089FE002840F0B5806A7A0D900E900F901D
:1071A0008DF836200DA9069A8DF834402220FFF77D
:1071B00079FE002840F0A580AA7A0D900E900F90DD
:1071C0008DF836200DA9069A8DF834402120FFF75E
:1071D00069FE002840F0958006A8FFF761FE0028B0
:1071E00040F08F8009900A90C0B240F001008DF805
:1071F000240009A90220FFF759FE002840F08180F1
:10720000C8220C90ADF83220B5F81623ADF82C202A
:107210000BA8B5F81823ADF82E20FFF733FE002891
:107220006FD110A81B7900F8303D0B221449FFF7ED
:107230002BFE0346002863D1FFF722FE03460028F9
:107240005ED1FFF71BFE00285BD105F54C7000F006
:10725000B1FC95F815331BB105F53A70FEF7DAFD70
:1072600003220021012006F09BFAC5F8200348B94B
:10727000042046E09C430300B16E0200003200206F
:10728000BC430300002407AB032601934FF4727242
:1072900023461D490394029400961C4806F01EFDE7
:1072A00032462146012006F07BFAC5F82403002867
:1072B000DED008AB01934FF4967223461449039431
:1072C00002940096134806F009FD134BC02283F880
:1072D00016234FF480021A60104B009301222346BC
:1072E0004FF48071204607F0A7FAC5F828030C4830
:1072F00001F08EF80B490A4801F0B0F8204600E092
:10730000184610B070BD00BFC8430300A17802004A
:10731000CF430300B96E020000E100E0B36E02004B
:10732000183B0020D643030037B5084B02AC1B794D
:1073300004F8043D08460D4609F0FBFF294682B2D9
:107340002046FFF7A1FD03B030BD00BF9C43030002
:1073500007B5084602A921F8022DFFF797FD10B9DD
:107360009DF8060000E0002003B05DF804FB00007B
:1073700030B50F4C85B005460A462068616801AB00
:1073800003C3217A1970002301A9C856904204D082
:107390000133092BF9D1002007E01046FFF76EFDFD
:1073A0000028F8D185F81C23012005B030BD00BFAE
:1073B000A143030090F91C03704773B50446D0F84D
:1073C00028030E4607F06AFB00230546B6024FF479
:1073D0007A720093B6FBF2F20421D4F8280307F086
:1073E00049FA3DB900952B462A460321D4F82803D3
:1073F00007F040FA02B070BDB0F880034FF6FF739B
:10740000C01A18BF01207047B0F8800308B54FF6C6
:10741000FF73984206D01321FFF72EFDB0FA80F0DB
:10742000400908BD012008BDC0F884137047C0F8AA
:1074300088137047B0F88003704790F88203704754
:10744000B0F81A03704710B5B1F880230446FFF76F
:1074500040F9204610BD000010B5064C0021D4F8BC
:10746000240306F093FAD4F820030021BDE810406D
:1074700006F08CBA3437002090F82C3313B553B192
:10748000D0F8284306F07CFD00230246009301213A
:10749000204607F0EFF902B010BD07B500230093B6
:1074A0001A460321D0F8280307F0E4F903B05DF889
:1074B00004FB90F82C3313B1132005F0E9BD70479D
:1074C00010B58AB004460A4603A8084909F0D2FE5E
:1074D0000023009304F29232502303A9044801F0E0
:1074E00003F8003018BF01200AB010BDE5430300C7
:1074F000183B002070B5B0F8A4234FF6FF739A42F2
:107500008AB0054629D00AAE002126F81E1D0323A5
:107510003246B0F88003FFF7C1FCBDF80A00FFF760
:10752000EDFC0446C8B1014603233246B5F880039A
:10753000FFF7B4FC70B9B5F8A423094903A809F012
:1075400099FE70220092BDF80A300648224603A92F
:1075500000F0F4FF2046FFF7E0FC0AB070BD00BF6A
:10756000E5430300183B00200148FFF7C3BF00BFFD
:107570003437002037B50C4690F8821361B90146C4
:107580006846FFF760FF009B2360BDF80430A380CE
:107590009DF80630A37119E000F2DA310D6825601C
:1075A0008D88A5808D79A57100F2CA3454F8045BEA
:1075B00042F8045B8C42F9D100F2923200F2AE3014
:1075C00052F8041B43F8041B8242F9D103B030BDCA
:1075D00010B5054C2046FFF7AFFC2046034A04498E
:1075E000BDE8104008F07EBD343700200032002096
:1075F0006579020070B58EB00A460646214907A893
:1076000009F038FE012207A901A800F0E3FF01A854
:1076100000F0F2FF08B9002424E001A801F013F8FB
:10762000B0F17004F7D02046FFF768FC054600284B
:10763000F1D0702101A801F020F82246294601A8C6
:1076400001F048F850B1A2B203232946B6F88003EE
:10765000FFF722FCB0FA80F4640900E004462846F3
:10766000FFF75BFC01A800F0CCFF34B923462246AB
:107670002146B6F88003FFF70FFC01A800F0CEFF0B
:107680000EB070BDE54303002DE9F04104460D4600
:1076900088B08F88FFF760F8294604F51C70FEF764
:1076A0003BFB04F532702946FFF7D6FAB4F88003A5
:1076B0002B88874206D0102B02D01B2B40F0C480B1
:1076C000132B01E0132B6AD005D8112B40D03BD8E7
:1076D000102B13D0B8E0192B00F09C8002D8142B8B
:1076E0007DD0B1E01A2B00F08C80522B40F0AC80A2
:1076F00000231A461946FFF7CFFBA5E0EB7B012BD1
:1077000040F0A2802B8AB4F81623A888A4F880033E
:107710009A42A4F81A3300F2B780B4F818239342BF
:1077200000F2B280D4F88433002B00F08D8010205A
:10773000FFF7E4FB0022D4F88413026042720122B6
:1077400003464160027275E02B89A4F81A337BE08E
:1077500094F8823313B12046FFF7CCFED4F8883377
:10776000BBB11420FFF7CAFB00220260D4F88813D3
:107770004272022202724160B4F8802300922A7A97
:1077800001926A46034603CAD8601961184607F099
:10779000FFF94FF6FF73A4F88033002337E004F2BB
:1077A000923650220021304608F065FD4FF6FF73F7
:1077B000A4F8A43320220021684608F05CFD04F2FE
:1077C000AE33049304F2CA33059304F563726B4637
:1077D0000021A8880096FFF75BFBA8B35AE0298A2E
:1077E0002046FFF76DFE0346A8882BB1002304F264
:1077F000CA3204F2923101E01A461946FFF74AFBF9
:1078000022E0B4F8A4132046FFF7F4FE012384F825
:10781000823319E02E7ABEB94FF0010884F88283D2
:107820001020FFF76BFB1D4A06600346426046725C
:1078300080F8088008AAB4F8801342F8201D106868
:10784000D860184607F0A4F994F8153363B1B4F87A
:107850008033BB4203D14FF6FF739F4204D12946C8
:1078600004F53A70FEF7DCFA04F53D763046FEF793
:10787000DDFE18B129463046FEF7DAFE294604F14E
:107880007000FFF75BF805E00021FFF7F3FA00282E
:107890003FF448AF08B0BDE8F08100BF597902005D
:1078A00073B54FF4FA70FFF729FB0F4E044600231F
:1078B0004FF0FF321946D6F8200306F08BF8002867
:1078C000F5D04FF4FA750DF106012046ADF80650DB
:1078D000FFF7EAFA20B921460348FFF7D5FEF2E7A1
:1078E0000528E4D0EFE700BF3437002010B596B08C
:1078F0000446B0F8A423174907A809F0BBFC2022CE
:1079000000210EA808F0B7FC20230EAAB4F88013BB
:107910002046FEF705FF022207A901A800F05AFE43
:1079200001A800F069FE80B1502204F2923101A852
:1079300000F036FE9DF8383023B120220EA901A8B0
:1079400000F02EFE01A800F05CFE01A800F066FE2B
:1079500016B010BDE54303000148FFF7C7BF00BFE5
:107960003437002010B5054BC0F83033044600F51D
:107970005070FEF7A7FA204610BD00BFE84503008F
:1079800073B5054641F60F016846FFF73BFA2E46F0
:107990009DE806002846FFF71DFA084B46F8103B05
:1079A000684642F61921FFF72DFA9DE80600304699
:1079B000FEF7D0FB284602B070BD00BFB4450300FF
:1079C00008B51030FEF72CFC003018BF012008BDB0
:1079D00038B50446FFF7E2F9054690B91034204661
:1079E0001221FEF7CEFB2A4620461121FEF7DAFBD4
:1079F00020460121FEF7CAFB2046BDE83840FEF7CD
:107A000069BA38BD3ADF70473BDF704711DF704716
:107A100013DF7047A8DF7047AADF704770B586B0E4
:107A20000E8805460C46014602A8FEF7CFFBBDF8BE
:107A30000830B34240F08880A379043B022B40F227
:107A400083801022002102A808F015FC022328469A
:107A50008DF80830FEF730FC50B940F2FD133B487A
:107A6000ADF80C30FFF7E6FC02A9FFF7D3FF6BE09F
:107A700000263648ADF80C60FFF7DCFC02A9FFF7E2
:107A8000C9FF257B012D5FD13E22314606AC30482F
:107A900008F0F1FB082324F8123D2C48FFF7CAFC3C
:107AA00022462B462B492C4CFFF7B6FF2849274886
:107AB0002A4B2B4AFFF75EFD25484FF6FF7110F861
:107AC000012B82EA112383EA13139AB243EA0123BA
:107AD00083EA023383EA4213A04299B2EFD11C4BEE
:107AE0001A489987FFF790FC1E48FEF705F9FF2119
:107AF0000020FFF789FFB1210020FFF783FF18BBAB
:107B0000FFF784FF00BB184A136823F001031360DA
:107B1000164B4FF48002C3F880210124420900F083
:107B20001F012032013004FA01F1272843F8221006
:107B3000F4D14FF010235869FFF76AFF20B980F3A2
:107B40001488586900F024F906B070BD343700205D
:107B5000807F0020B47F0020BC7F0020987F002021
:107B6000877F0020A439002010E000E000E100E061
:107B700073B505460C496846FFF74AF92E469DE85D
:107B800006002846FFF726F9084B46F8103B6846E2
:107B90000749FFF73DF99DE806003046FEF7DAFA9F
:107BA000284602B070BD00BFC0450300E845030091
:107BB000D045030030B5A3B00446FFF7EFF8002826
:107BC0004FD112AD29492846FFF722F995E8060062
:107BD00002A8FEF7BFFA02A8FEF7D0FA042102A815
:107BE000FEF7CFFA02A81421FEF7CEFA02A8FEF79C
:107BF00071F988BB103418212046FEF7C2FA17210C
:107C00002046FEF7C1FA20461949FEF7D2FA20466F
:107C1000FEF760F900BB17496846FFF7F9F89DE8E1
:107C200006002846FEF796FA02A8FEF7A7FA0221F8
:107C30002846FEF7A6FA02212846FEF7A7FA2846AC
:107C4000FEF748F9044618B901212846FEF7F3FA71
:107C50002846FEF737F900E0044602A8FEF732F99D
:107C600000E00446204623B030BD00BFF4450300C9
:107C70001D7A02000446030037B5044641F60A01A6
:107C80006846FFF7BFF89DE806002046FFF7A2F818
:107C9000074B2360074B236100236361A361E3610A
:107CA000054B2362054B6362204603B030BD00BF25
:107CB0004846030014460300365F030029460300CC
:107CC0000161704741627047F0B593B00546FFF718
:107CD00065F800283BD106F0E5FF686106F09EFFDD
:107CE0000C35E86042F624266F4655F8043F3BB356
:107CF00031463846FFF786F897E8060002A8FEF7F7
:107D000029FA02A8FEF73AFA022102A8FEF739FA88
:107D1000286809F00EFB81B202A8FEF737FA02A824
:107D2000FEF7D8F8044620B102A8FEF7CBF82046AB
:107D30000DE0296802A8FEF766FA02A8FEF7C2F86D
:107D40000136B6B242F62A239E42CED1002013B0AD
:107D5000F0BD0000F0B50346186880F30888586845
:107D6000FF2464B2EFF30585002D01D1A64600473C
:107D70002546064621273FBAF0B4002400250026F8
:107D80000027F0B4F92040B2004700BFF0BD00BFAB
:107D9000FFF7E0BF0123037000234370436083605B
:107DA000C3818381704708B5FFF7F4FF08BD10B5A4
:107DB0000446217019B90A2005F010FD606010BD5D
:107DC000037810B5044613B9406805F0B3FE2046A9
:107DD000BDE81040FFF7DEBF002381608281C381D0
:107DE0007047037870B505460C467BB901236B706C
:107DF0000023A4024FF47A721946B4FBF2F26868C9
:107E000005F0E8FD68B94FF0FF340CE003220021D3
:107E1000012005F0C5FC68600028E7D14FF0FF3075
:107E200070BDEC89A4B22B7800266E701BB1686817
:107E300005F080FE6E60204670BD4078704738B512
:107E400085899542044628BF154619B12A4680689F
:107E500008F0EBF9A3682B44A360A3895B1BA38103
:107E6000E38915FA83F39BB2E381284638BD406865
:107E700020B100231A46194605F0BABC704741608C
:107E800002707047F8B504460D4601784068174601
:107E90001E46FDF758FD6068A900036806311B689F
:107EA00001F0FE01984760680368F9B21B689847C3
:107EB00060680368390A1B68984760680368F1B214
:107EC0001B68984760680368310A1B6898476068B8
:107ED000BDE8F840FDF792BD38B504460D4601787F
:107EE0004068FDF730FD6068036829461B689847C5
:107EF0006068FDF783FD012221786068FDF720FDB1
:107F000060680368DB689847C0B238BD70B5044646
:107F10000E46017840681546FDF715FD6068036858
:107F200031461B6898476068036829461B68984774
:107F30006068BDE87040FDF761BD08B58022002192
:107F4000FFF7E4FF0A20BDE8084004F0CEBE0000C1
:107F500073B5044610EE100A07F0A2FB28A3D3E97C
:107F6000002307F0F1FB07F0A9FEDFED237A06EE10
:107F7000900A87EEA67AF7EE007A77EE677A17EE28
:107F8000900A07F08DFB1D4B002207F02BFA41EC05
:107F9000100B04F0D5F9002120468DED000BFFF702
:107FA0009BFF00F06F0242F01002054600212046C0
:107FB000FFF7ACFF9DED000B51EC100B07F05EFEE0
:107FC000FE21C2B22046FFF7A1FF2A46002120462B
:107FD000FFF79CFF04F07EFE064604F07BFE801B4C
:107FE0000428FAD965F05F02D2B20021204602B01F
:107FF000BDE87040FFF78ABF20BCBE450000E03FEF
:10800000CDCCCCCCCCCCEC3F10B50446FFF795FFE3
:1080100020469FED030ABDE81040FFF799BF00BF5F
:108020000000C84470B50A4C0E462046772115461C
:10803000FDF789FC31462046FDF784FB29462046A2
:10804000FDF780FB2046BDE87040FDF7D7BC00BFC0
:108050007436002010B514480C467721FDF773FCE8
:1080600021461148FDF76EFB0F48FDF7C7FC0122C2
:1080700077210D48FDF764FC04F02CFE04460A4805
:10808000FDF75DFB50B904F025FE001BB0F5FA7F4B
:10809000F5D90649064806F040FEF0E70248FDF72C
:1080A00063FBC0B210BD00BF74360020544603000D
:1080B000BC3C002010B518480C467721FDF743FC66
:1080C00021461548FDF73EFB1348FDF797FC0222B9
:1080D00077211148FDF734FC04F0FCFD04460E48FE
:1080E000FDF72DFB01280ADC04F0F4FD001BB0F5C0
:1080F000FA7FF4D909490A4806F00FFEEFE706486F
:10810000FDF732FB04460448FDF72EFB240204F47D
:108110007F44C0B2204310BD743600208046030067
:10812000BC3C002008B5FFF7C5FF40BA80B208BDCF
:1081300010B5D0210446FFF78DFF582842D1882181
:108140002046FFF7EFFF8A2120802046FFF7EAFF55
:108150008C2160802046FFF7E5FF8E21A08020461D
:10816000FFF7E0FF9021E0802046FFF7DBFF922140
:1081700020812046FFF7D6FF942160812046FFF73B
:10818000D1FF9621A0812046FFF7CCFF9821E08106
:108190002046FFF7C7FF9A2120822046FFF7C2FF43
:1081A0009C2160822046FFF7BDFF9E21A0822046D1
:1081B000FFF7B8FF3F22E082F4212046FFF732FFAD
:1081C000012010BD002010BD38B515480C467721A0
:1081D000FDF7B9FB21461248FDF7B4FA1048FDF748
:1081E0000DFC032277210E48FDF7AAFB04F072FD77
:1081F000002405460A48FDF7A2FA78B104F06AFDAA
:10820000401BB0F5FA7F03D90649074806F085FD03
:108210000348FDF7A9FA40EA0424EBE7204638BDFD
:1082200074360020AD460300BC3C002010B5FA2196
:108230000446FFF7C9FF2288C2EB20235200C2EB9D
:10824000E010B4F902205B435043B4F904201B133F
:1082500053439B1303EBE020A06100EB80008030D0
:10826000001207EE900AB8EEE70ADFED027A80EE20
:10827000270A10BD0000C8422DE9F84F0646FFF757
:10828000D5FFF7213046FFF79FFFB469B6F9082004
:10829000E517B4F5FA3445F1FF35A4FB048904FB76
:1082A00005F309EB430902FB05F1D31704FB0311A6
:1082B000A2FB04230B44190341EA125107461003A1
:1082C000B6F90A20D31702FB09FE08FB03EEA2FB56
:1082D000082373444FEA122A4AEA036A1AEB000A97
:1082E000F2884FEA232B4BEB010B1AF100004BF500
:1082F0000041A0FB02AB02FB01BB4FEA6B024FEA5D
:10830000EB7352EA030179D0B6F910A04FEAEA7B89
:108310000AFB09F108FB0B11AAFB0889B6F90EA0AC
:1083200089444FEAEA7B0AFB05F104FB0B11AAFB27
:1083300004450D444FEA454B4FEA444A38111AEBC5
:10834000080AC0F580104BEAD43B4BEB090B4FEA0F
:10835000E0794FEAC97545EA5005C407B6F90C0043
:108360004FF0000818EB0A084FEAC00949EB0B0967
:1083700040F63547B4EB080465EB0905A4FB07019B
:1083800007FB051107F0EAFCB6F916204C13450B64
:1083900045EAC14502FB04F7D31705FB0377A2FBAF
:1083A00005233B44544305FB0344A2FB052323441C
:1083B000B6F914404FEA526848EAC3184FEA6369B5
:1083C000E51704FB01F300FB0533A4FB00451D4446
:1083D000E20C18EB000842EA453249EB0109EB14C4
:1083E00018EB0200B6F9124049EB0301020A42EA17
:1083F000016220011218100ABDE8F88F0020BDE8C4
:10840000F88F10B5037201238171C271037410BD1E
:1084100030B504789BB00546ECB90123037003F036
:1084200067FF00F025FC6860A8B9072302AA01A92C
:10843000019302F049FE686068B902A800F00BFCE5
:108440000128686003D102A800F0F9FB68606C683D
:10845000B4FA84F4640920461BB030BDF8B5074671
:1084600008460D4608F065FF441C06F09BF80128FD
:10847000204602D107F0BAFE01E006F01BFB0446DD
:10848000284608F056FF0021421C20466E1C07F0CB
:10849000F2FE30462F2108F011FF064648B1421B7C
:1084A0002946204607F0C1FE204600F005FA0136B5
:1084B000EFE7284600F000FA786006F073F801282C
:1084C000204602D107F09AFE01E006F0FFFA786834
:1084D000B0FA80F04009F8BD024B00225A601A70D1
:1084E000704700BF183B0020F0B587B00546164620
:1084F000684601221F460C9C00F06CF8684600F0AC
:108500007BF808B9002413E05CB93A463146684666
:1085100000F0E0F8059B6B600446684600F071F8D7
:1085200006E02146684600F0A8F80028EDD1E9E70A
:10853000684600F073F8204607B0F0BDF0B587B08C
:1085400005460C9C1646684602221F4600F042F87B
:108550006CB93A463146684600F022F8059B6B60DC
:10856000041C684618BF012400F04BF806E02146C1
:10857000684600F082F804460028EAD1684600F018
:108580004DF8204607B0F0BD13B502AB026803F802
:10859000011D546819460122A04702B010BD704762
:1085A00038B504460069154600F05AF900286061A4
:1085B0000CBF2846002038BD10B5044608461146B9
:1085C00004F1100200F025F96061B0FA80F0400972
:1085D00010BD000038B54FF47A7500238560054D55
:1085E00043600446056003614361FFF7E5FF2046F1
:1085F00038BD00BFE84603000069003018BF012005
:10860000704710B50446006900F010F9002360615E
:10861000B0FA80F02361400910BD0000044B10B592
:108620000360036904460BB1FFF7EBFF204610BD62
:10863000E846030010B50446FFF7F0FF204606F0B9
:108640004EFE204610BD13B502A90023044641F892
:10865000043D006900F025F96061019802B010BD89
:10866000006900F015B938B50546FFF7ECFF044680
:108670002846FFF7F5FF201A38BD38B50C1E054611
:1086800004DAFFF7E0FF0134211800E021462869F1
:1086900000F0F3F86861B0FA80F0400938BD70B5B9
:1086A00004460E460569FFF7DBFF811B284600F0F4
:1086B000E4F86061B0FA80F0400970BD38B5036835
:1086C000DB6804469847012105462046FFF7E7FF8F
:1086D000284638BD13B5044602AB1046002243F8C5
:1086E000042D0A460146206900F0A9F8606101984E
:1086F00002B010BD07B501220DF10701FFF7EAFF37
:1087000001280CBF9DF807004FF0FF3003B05DF863
:1087100004FB000038B5044668B1074B1D6845B13D
:108720002146286808F0D8FD08B9686838BDED68AA
:10873000F5E7284638BD38BD203B002070B5064619
:1087400005462B4613F8014B84B13A2C01D01D4647
:10875000F7E7AD1BEDB2681C07F048FD044628B1F1
:108760002A46314607F061FD00236355204670BD5F
:1087700038B503461C4613F8012B7AB13A2AF9D1D1
:108780000134204608F0D5FD054607F02FFD2A46A6
:10879000214607F04AFD0022425538BDBDE8384069
:1087A00008F0ACBD0D2070470D2070470D207047BC
:1087B0000D2070470D2070470D2070470D20704729
:1087C0000D2070470D2070470D2070470D20704719
:1087D0000D2070470D2070470D2070470D20704709
:1087E00008B500F093F8024B002808BF184608BDF2
:1087F0003432002008B5FFF7A1FF10B1FFF78AFF60
:1088000002E000F079F818B9BDE80840FFF7E8BFCA
:1088100008BD70B504460D461646FFF7EBFF32461D
:10882000036829462046BDE87040184710B5044645
:1088300000F07CF843682046BDE8104018472DE959
:10884000F04105460E461746984600F06FF88468DA
:1088500043463A4631462846A446BDE8F0416047C3
:1088600070B504460D46164600F060F83246C368FF
:1088700029462046BDE87040184770B504460D46AD
:1088800000F054F8294603692046BDE870401847B7
:1088900010B5044600F04AF843692046BDE8104090
:1088A000184770B504460D4600F040F82946836924
:1088B0002046BDE87040184710B50446FFF79AFF00
:1088C000436A2046BDE8104018470000F8B5094B40
:1088D0001F6806463C461D4634B1F16BE06B08F05C
:1088E000FBFC28B1246CF7E737642E602046F8BD06
:1088F0000B20F8BD243B0020034B186818B1036C13
:10890000002B18BF00207047243B002038B5064BD1
:108910001C68054634B12946E06B08F0DDFC08B15F
:10892000246CF7E7204638BD243B002008B10068DE
:1089300070470148704700BF3432002010B504462C
:1089400005F030FE0128204603D1BDE8104007F0B5
:1089500055BCBDE8104006F0B9B810B5044605F0A6
:1089600021FE0128204603D1BDE8104007F03EBC9F
:10897000BDE8104006F09EB8084808B500234FF047
:10898000FF321946006805F025F828B9044B054A5E
:1089900005488C2107F0ACFB08BD00BF283B002038
:1089A0000F470300EB4703002F470300074808B5B4
:1089B00000231A461946006804F01AFF28B9044B30
:1089C000044A0548952107F093FB08BD283B002089
:1089D0000F470300084803002F47030010B5044663
:1089E000FFF7CAFF0CB1636833B9074B074A084861
:1089F00040F2722107F07CFB5C68FFF7D7FF20464E
:108A0000BDE8104001F066BBA3470300F547030033
:108A10002F47030010B50446FFF7AEFFA468FFF729
:108A2000C5FF204610BD0000F8B504460D461646A9
:108A30001F46FFF7A1FF0CB1606830B9084B094A27
:108A400009484FF4167107F053FB3B46324629465E
:108A500001F0E3FF0446FFF7A9FF2046F8BD00BF81
:108A6000A3470300DA4703002F47030010B504466D
:108A7000FFF782FF204600F0D3FD0446FFF796FF84
:108A8000204610BD38B504460D46FFF775FF294650
:108A9000204600F0A9FD0446FFF788FF204638BDB8
:108AA00070B504460D46FFF767FF02F005FB60B1A5
:108AB0002046FFF75DFE2946064600F06BFD0446A2
:108AC00026B13046FFF73AFF00E00D24FFF76EFFB6
:108AD0000CB100232B60204670BD10B50446FFF793
:108AE0004BFF02F0E9FA28B12046002102F07AFC9F
:108AF000044600E00D24FFF759FF204610BD38B5AD
:108B000004460D46FFF738FF02F0D6FA28B120469A
:108B1000294602F011FC044600E00D24FFF746FF51
:108B2000204638BD10B50446FFF726FF02F0C4FA10
:108B300020B1204602F0EFFB044600E00D24FFF7D1
:108B400035FF204610BD38B504460D46FFF714FF2B
:108B50002946606801F006FD0446FFF727FF20461E
:108B600038BD38B504460D46FFF706FF29462046B6
:108B700000F062FE0446FFF719FF204638BD70B5CD
:108B800004460D461646FFF7F7FE02F095FA30B19F
:108B900020463246294603F0A1F8044600E00D24A1
:108BA000FFF704FF204670BDF8B504460D46164693
:108BB0001F46FFF7E1FE3B4632462946204600F0BD
:108BC0004AFE0446FFF7F2FE2046F8BD10B5044603
:108BD00038B1FFF7D1FE204600F060FE0446FFF7F3
:108BE000E5FE204610BD73B505460C461646FFF758
:108BF000C3FE02F061FA88B12846FFF7B9FD2246AC
:108C00000146054601A800F0A1FD044668B9019B94
:108C100033607DB12846FFF791FE00E00D24FFF799
:108C2000C5FE4CB10023336006E0002DF2D1FFF702
:108C3000BDFEF7E7FFF7BAFE204602B070BD10B5E3
:108C40000446FFF799FE204600F03AFF0446FFF77E
:108C5000ADFE204610BD10B50446FFF78DFE204640
:108C600002F066FF0446FFF7A1FE204610BD00009B
:108C700038B500F0F9FB00F0E5FB012004F038FE08
:108C80002B4B186000284ED02A4D2B4C2868FFF73C
:108C900055FEA0680001FFF760FE286008B90520B6
:108CA00038BD264D2868FFF749FE23681820584331
:108CB000FFF753FE28600028F1D0214D2868FFF708
:108CC0003DFE63680C205843FFF747FE28600028EC
:108CD000E5D01C4D2868FFF731FE23692420584356
:108CE000FFF73BFE28600028D9D0174D2868FFF712
:108CF00025FE60694001FFF730FE28600028CED0D5
:108D0000124D2868FFF71AFEE0680001FFF725FE04
:108D100028600028C3D002F033F9044628B90C4873
:108D2000FFF7D4FD01E00A2038BD204638BD00BF62
:108D3000283B0020F03D0020303E0020F83D002080
:108D40002C3E0020603D0020F43D0020283E002005
:108D5000783200200268094B9A420DD14268084BD4
:108D60009A4209D18268074B9A4205D1C3680648E6
:108D70001B1A58425841704700207047E2318AB9A7
:108D80008C42B07F5382E0AC8EFC85B108B50146C1
:108D9000FFF7E0FF20B1C87DA0F1FF035842584122
:108DA00008BD007D431E58425841704738B50C46F7
:108DB000054618220021204607F05DFA074B0848B7
